{
  "_format": "hh-sol-artifact-1",
  "contractName": "SocialFeed",
  "sourceName": "contracts/SocialFeed.sol",
  "abi": [
    {
      "inputs": [],
      "name": "commentCount",
      "outputs": [
        {
          "internalType": "uint256",
          "name": "",
          "type": "uint256"
        }
      ],
      "stateMutability": "view",
      "type": "function"
    },
    {
      "inputs": [
        {
          "internalType": "uint256",
          "name": "_postId",
          "type": "uint256"
        },
        {
          "internalType": "string",
          "name": "_content",
          "type": "string"
        }
      ],
      "name": "commentOnPost",
      "outputs": [],
      "stateMutability": "nonpayable",
      "type": "function"
    },
    {
      "inputs": [
        {
          "internalType": "uint256",
          "name": "",
          "type": "uint256"
        }
      ],
      "name": "comments",
      "outputs": [
        {
          "internalType": "uint256",
          "name": "commentId",
          "type": "uint256"
        },
        {
          "internalType": "string",
          "name": "authorUsername",
          "type": "string"
        },
        {
          "internalType": "uint256",
          "name": "postId",
          "type": "uint256"
        },
        {
          "internalType": "string",
          "name": "content",
          "type": "string"
        },
        {
          "internalType": "uint256",
          "name": "timestamp",
          "type": "uint256"
        }
      ],
      "stateMutability": "view",
      "type": "function"
    },
    {
      "inputs": [
        {
          "internalType": "string",
          "name": "_content",
          "type": "string"
        }
      ],
      "name": "createPost",
      "outputs": [],
      "stateMutability": "nonpayable",
      "type": "function"
    },
    {
      "inputs": [
        {
          "internalType": "string",
          "name": "_username",
          "type": "string"
        },
        {
          "internalType": "string",
          "name": "_bio",
          "type": "string"
        }
      ],
      "name": "createUser",
      "outputs": [],
      "stateMutability": "nonpayable",
      "type": "function"
    },
    {
      "inputs": [
        {
          "internalType": "uint256",
          "name": "_postId",
          "type": "uint256"
        }
      ],
      "name": "getCommentsForPost",
      "outputs": [
        {
          "components": [
            {
              "internalType": "uint256",
              "name": "commentId",
              "type": "uint256"
            },
            {
              "internalType": "string",
              "name": "authorUsername",
              "type": "string"
            },
            {
              "internalType": "uint256",
              "name": "postId",
              "type": "uint256"
            },
            {
              "internalType": "string",
              "name": "content",
              "type": "string"
            },
            {
              "internalType": "uint256",
              "name": "timestamp",
              "type": "uint256"
            }
          ],
          "internalType": "struct SocialFeed.Comment[]",
          "name": "",
          "type": "tuple[]"
        }
      ],
      "stateMutability": "view",
      "type": "function"
    },
    {
      "inputs": [
        {
          "internalType": "uint256",
          "name": "_postId",
          "type": "uint256"
        }
      ],
      "name": "getPostAuthorUsername",
      "outputs": [
        {
          "internalType": "string",
          "name": "",
          "type": "string"
        }
      ],
      "stateMutability": "view",
      "type": "function"
    },
    {
      "inputs": [
        {
          "internalType": "uint256",
          "name": "_postId",
          "type": "uint256"
        },
        {
          "internalType": "address",
          "name": "_user",
          "type": "address"
        }
      ],
      "name": "isPostLikedByUser",
      "outputs": [
        {
          "internalType": "bool",
          "name": "",
          "type": "bool"
        }
      ],
      "stateMutability": "view",
      "type": "function"
    },
    {
      "inputs": [
        {
          "internalType": "address",
          "name": "_user",
          "type": "address"
        }
      ],
      "name": "isUserRegistered",
      "outputs": [
        {
          "internalType": "bool",
          "name": "",
          "type": "bool"
        }
      ],
      "stateMutability": "view",
      "type": "function"
    },
    {
      "inputs": [
        {
          "internalType": "uint256",
          "name": "_postId",
          "type": "uint256"
        }
      ],
      "name": "likePost",
      "outputs": [],
      "stateMutability": "nonpayable",
      "type": "function"
    },
    {
      "inputs": [],
      "name": "postCount",
      "outputs": [
        {
          "internalType": "uint256",
          "name": "",
          "type": "uint256"
        }
      ],
      "stateMutability": "view",
      "type": "function"
    },
    {
      "inputs": [
        {
          "internalType": "uint256",
          "name": "",
          "type": "uint256"
        }
      ],
      "name": "posts",
      "outputs": [
        {
          "internalType": "uint256",
          "name": "postId",
          "type": "uint256"
        },
        {
          "internalType": "address",
          "name": "author",
          "type": "address"
        },
        {
          "internalType": "string",
          "name": "content",
          "type": "string"
        },
        {
          "internalType": "uint256",
          "name": "likes",
          "type": "uint256"
        },
        {
          "internalType": "uint256",
          "name": "timestamp",
          "type": "uint256"
        }
      ],
      "stateMutability": "view",
      "type": "function"
    },
    {
      "inputs": [
        {
          "internalType": "uint256",
          "name": "_postId",
          "type": "uint256"
        }
      ],
      "name": "unlikePost",
      "outputs": [],
      "stateMutability": "nonpayable",
      "type": "function"
    },
    {
      "inputs": [
        {
          "internalType": "address",
          "name": "",
          "type": "address"
        }
      ],
      "name": "users",
      "outputs": [
        {
          "internalType": "address",
          "name": "userAddress",
          "type": "address"
        },
        {
          "internalType": "string",
          "name": "username",
          "type": "string"
        },
        {
          "internalType": "string",
          "name": "bio",
          "type": "string"
        }
      ],
      "stateMutability": "view",
      "type": "function"
    }
  ],
  "bytecode": "0x608060405234801561001057600080fd5b5061219d806100206000396000f3fe608060405234801561001057600080fd5b50600436106100ea5760003560e01c806387b162b51161008c578063a87430ba11610066578063a87430ba14610277578063c7303c61146102a9578063f80ad44a146102c5578063fa188de9146102f5576100ea565b806387b162b5146101f75780638c852d91146102135780638ebb4c1514610243576100ea565b806317906c2e116100c857806317906c2e1461018357806345ff20de146101a157806364732154146101bf578063725009d3146101db576100ea565b80630b1e7f83146100ef578063163f75221461012357806316e6da3c14610153575b600080fd5b61010960048036038101906101049190611366565b610311565b60405161011a959493929190611473565b60405180910390f35b61013d600480360381019061013891906114f9565b6103ef565b60405161014a9190611541565b60405180910390f35b61016d60048036038101906101689190611366565b610449565b60405161017a919061155c565b60405180910390f35b61018b610552565b604051610198919061157e565b60405180910390f35b6101a9610558565b6040516101b6919061157e565b60405180910390f35b6101d960048036038101906101d491906116ce565b61055e565b005b6101f560048036038101906101f09190611366565b610741565b005b610211600480360381019061020c919061172a565b61093a565b005b61022d600480360381019061022891906117a2565b610ab3565b60405161023a9190611541565b60405180910390f35b61025d60048036038101906102589190611366565b610b1e565b60405161026e9594939291906117e2565b60405180910390f35b610291600480360381019061028c91906114f9565b610c64565b6040516102a093929190611843565b60405180910390f35b6102c360048036038101906102be9190611888565b610dbe565b005b6102df60048036038101906102da9190611366565b610ea4565b6040516102ec9190611a69565b60405180910390f35b61030f600480360381019061030a9190611366565b6110f5565b005b60016020528060005260406000206000915090508060000154908060010160009054906101000a900473ffffffffffffffffffffffffffffffffffffffff169080600201805461036090611aba565b80601f016020809104026020016040519081016040528092919081815260200182805461038c90611aba565b80156103d95780601f106103ae576101008083540402835291602001916103d9565b820191906000526020600020905b8154815290600101906020018083116103bc57829003601f168201915b5050505050908060030154908060060154905085565b6000806000808473ffffffffffffffffffffffffffffffffffffffff1673ffffffffffffffffffffffffffffffffffffffff168152602001908152602001600020600101805461043e90611aba565b905014159050919050565b60606000806001600085815260200190815260200160002060010160009054906101000a900473ffffffffffffffffffffffffffffffffffffffff1673ffffffffffffffffffffffffffffffffffffffff1673ffffffffffffffffffffffffffffffffffffffff16815260200190815260200160002060010180546104cd90611aba565b80601f01602080910402602001604051908101604052809291908181526020018280546104f990611aba565b80156105465780601f1061051b57610100808354040283529160200191610546565b820191906000526020600020905b81548152906001019060200180831161052957829003601f168201915b50505050509050919050565b60035481565b60045481565b610567336103ef565b6105a6576040517f08c379a000000000000000000000000000000000000000000000000000000000815260040161059d90611b37565b60405180910390fd5b600073ffffffffffffffffffffffffffffffffffffffff166001600084815260200190815260200160002060010160009054906101000a900473ffffffffffffffffffffffffffffffffffffffff1673ffffffffffffffffffffffffffffffffffffffff160361064b576040517f08c379a000000000000000000000000000000000000000000000000000000000815260040161064290611ba3565b60405180910390fd5b6004600081548092919061065e90611bf2565b91905055506000600260006004548152602001908152602001600020905060045481600001819055506000803373ffffffffffffffffffffffffffffffffffffffff1673ffffffffffffffffffffffffffffffffffffffff1681526020019081526020016000206001018160010190816106d89190611e11565b50828160020181905550818160030190816106f39190611ef9565b50428160040181905550600160008481526020019081526020016000206004016004549080600181540180825580915050600190039060005260206000200160009091909190915055505050565b61074a336103ef565b610789576040517f08c379a000000000000000000000000000000000000000000000000000000000815260040161078090611b37565b60405180910390fd5b6000600160008381526020019081526020016000209050600073ffffffffffffffffffffffffffffffffffffffff168160010160009054906101000a900473ffffffffffffffffffffffffffffffffffffffff1673ffffffffffffffffffffffffffffffffffffffff1603610833576040517f08c379a000000000000000000000000000000000000000000000000000000000815260040161082a90611ba3565b60405180910390fd5b8060050160003373ffffffffffffffffffffffffffffffffffffffff1673ffffffffffffffffffffffffffffffffffffffff16815260200190815260200160002060009054906101000a900460ff16156108c2576040517f08c379a00000000000000000000000000000000000000000000000000000000081526004016108b990612017565b60405180910390fd5b8060030160008154809291906108d790611bf2565b919050555060018160050160003373ffffffffffffffffffffffffffffffffffffffff1673ffffffffffffffffffffffffffffffffffffffff16815260200190815260200160002060006101000a81548160ff0219169083151502179055505050565b60008060003373ffffffffffffffffffffffffffffffffffffffff1673ffffffffffffffffffffffffffffffffffffffff168152602001908152602001600020600101805461098890611aba565b9050146109ca576040517f08c379a00000000000000000000000000000000000000000000000000000000081526004016109c190612083565b60405180910390fd5b60405180606001604052803373ffffffffffffffffffffffffffffffffffffffff168152602001838152602001828152506000803373ffffffffffffffffffffffffffffffffffffffff1673ffffffffffffffffffffffffffffffffffffffff16815260200190815260200160002060008201518160000160006101000a81548173ffffffffffffffffffffffffffffffffffffffff021916908373ffffffffffffffffffffffffffffffffffffffff1602179055506020820151816001019081610a959190611ef9565b506040820151816002019081610aab9190611ef9565b509050505050565b60006001600084815260200190815260200160002060050160008373ffffffffffffffffffffffffffffffffffffffff1673ffffffffffffffffffffffffffffffffffffffff16815260200190815260200160002060009054906101000a900460ff16905092915050565b6002602052806000526040600020600091509050806000015490806001018054610b4790611aba565b80601f0160208091040260200160405190810160405280929190818152602001828054610b7390611aba565b8015610bc05780601f10610b9557610100808354040283529160200191610bc0565b820191906000526020600020905b815481529060010190602001808311610ba357829003601f168201915b505050505090806002015490806003018054610bdb90611aba565b80601f0160208091040260200160405190810160405280929190818152602001828054610c0790611aba565b8015610c545780601f10610c2957610100808354040283529160200191610c54565b820191906000526020600020905b815481529060010190602001808311610c3757829003601f168201915b5050505050908060040154905085565b60006020528060005260406000206000915090508060000160009054906101000a900473ffffffffffffffffffffffffffffffffffffffff1690806001018054610cad90611aba565b80601f0160208091040260200160405190810160405280929190818152602001828054610cd990611aba565b8015610d265780601f10610cfb57610100808354040283529160200191610d26565b820191906000526020600020905b815481529060010190602001808311610d0957829003601f168201915b505050505090806002018054610d3b90611aba565b80601f0160208091040260200160405190810160405280929190818152602001828054610d6790611aba565b8015610db45780601f10610d8957610100808354040283529160200191610db4565b820191906000526020600020905b815481529060010190602001808311610d9757829003601f168201915b5050505050905083565b610dc7336103ef565b610e06576040517f08c379a0000000000000000000000000000000000000000000000000000000008152600401610dfd90611b37565b60405180910390fd5b60036000815480929190610e1990611bf2565b9190505550600060016000600354815260200190815260200160002090506003548160000181905550338160010160006101000a81548173ffffffffffffffffffffffffffffffffffffffff021916908373ffffffffffffffffffffffffffffffffffffffff16021790555081816002019081610e969190611ef9565b504281600601819055505050565b606060006001600084815260200190815260200160002060040180549050905060008167ffffffffffffffff811115610ee057610edf6115a3565b5b604051908082528060200260200182016040528015610f1957816020015b610f066112ed565b815260200190600190039081610efe5790505b50905060005b828110156110ea5760026000600160008881526020019081526020016000206004018381548110610f5357610f526120a3565b5b906000526020600020015481526020019081526020016000206040518060a001604052908160008201548152602001600182018054610f9190611aba565b80601f0160208091040260200160405190810160405280929190818152602001828054610fbd90611aba565b801561100a5780601f10610fdf5761010080835404028352916020019161100a565b820191906000526020600020905b815481529060010190602001808311610fed57829003601f168201915b505050505081526020016002820154815260200160038201805461102d90611aba565b80601f016020809104026020016040519081016040528092919081815260200182805461105990611aba565b80156110a65780601f1061107b576101008083540402835291602001916110a6565b820191906000526020600020905b81548152906001019060200180831161108957829003601f168201915b505050505081526020016004820154815250508282815181106110cc576110cb6120a3565b5b602002602001018190525080806110e290611bf2565b915050610f1f565b508092505050919050565b6110fe336103ef565b61113d576040517f08c379a000000000000000000000000000000000000000000000000000000000815260040161113490611b37565b60405180910390fd5b6000600160008381526020019081526020016000209050600073ffffffffffffffffffffffffffffffffffffffff168160010160009054906101000a900473ffffffffffffffffffffffffffffffffffffffff1673ffffffffffffffffffffffffffffffffffffffff16036111e7576040517f08c379a00000000000000000000000000000000000000000000000000000000081526004016111de90611ba3565b60405180910390fd5b8060050160003373ffffffffffffffffffffffffffffffffffffffff1673ffffffffffffffffffffffffffffffffffffffff16815260200190815260200160002060009054906101000a900460ff16611275576040517f08c379a000000000000000000000000000000000000000000000000000000000815260040161126c9061211e565b60405180910390fd5b80600301600081548092919061128a9061213e565b919050555060008160050160003373ffffffffffffffffffffffffffffffffffffffff1673ffffffffffffffffffffffffffffffffffffffff16815260200190815260200160002060006101000a81548160ff0219169083151502179055505050565b6040518060a0016040528060008152602001606081526020016000815260200160608152602001600081525090565b6000604051905090565b600080fd5b600080fd5b6000819050919050565b61134381611330565b811461134e57600080fd5b50565b6000813590506113608161133a565b92915050565b60006020828403121561137c5761137b611326565b5b600061138a84828501611351565b91505092915050565b61139c81611330565b82525050565b600073ffffffffffffffffffffffffffffffffffffffff82169050919050565b60006113cd826113a2565b9050919050565b6113dd816113c2565b82525050565b600081519050919050565b600082825260208201905092915050565b60005b8381101561141d578082015181840152602081019050611402565b60008484015250505050565b6000601f19601f8301169050919050565b6000611445826113e3565b61144f81856113ee565b935061145f8185602086016113ff565b61146881611429565b840191505092915050565b600060a0820190506114886000830188611393565b61149560208301876113d4565b81810360408301526114a7818661143a565b90506114b66060830185611393565b6114c36080830184611393565b9695505050505050565b6114d6816113c2565b81146114e157600080fd5b50565b6000813590506114f3816114cd565b92915050565b60006020828403121561150f5761150e611326565b5b600061151d848285016114e4565b91505092915050565b60008115159050919050565b61153b81611526565b82525050565b60006020820190506115566000830184611532565b92915050565b60006020820190508181036000830152611576818461143a565b905092915050565b60006020820190506115936000830184611393565b92915050565b600080fd5b600080fd5b7f4e487b7100000000000000000000000000000000000000000000000000000000600052604160045260246000fd5b6115db82611429565b810181811067ffffffffffffffff821117156115fa576115f96115a3565b5b80604052505050565b600061160d61131c565b905061161982826115d2565b919050565b600067ffffffffffffffff821115611639576116386115a3565b5b61164282611429565b9050602081019050919050565b82818337600083830152505050565b600061167161166c8461161e565b611603565b90508281526020810184848401111561168d5761168c61159e565b5b61169884828561164f565b509392505050565b600082601f8301126116b5576116b4611599565b5b81356116c584826020860161165e565b91505092915050565b600080604083850312156116e5576116e4611326565b5b60006116f385828601611351565b925050602083013567ffffffffffffffff8111156117145761171361132b565b5b611720858286016116a0565b9150509250929050565b6000806040838503121561174157611740611326565b5b600083013567ffffffffffffffff81111561175f5761175e61132b565b5b61176b858286016116a0565b925050602083013567ffffffffffffffff81111561178c5761178b61132b565b5b611798858286016116a0565b9150509250929050565b600080604083850312156117b9576117b8611326565b5b60006117c785828601611351565b92505060206117d8858286016114e4565b9150509250929050565b600060a0820190506117f76000830188611393565b8181036020830152611809818761143a565b90506118186040830186611393565b818103606083015261182a818561143a565b90506118396080830184611393565b9695505050505050565b600060608201905061185860008301866113d4565b818103602083015261186a818561143a565b9050818103604083015261187e818461143a565b9050949350505050565b60006020828403121561189e5761189d611326565b5b600082013567ffffffffffffffff8111156118bc576118bb61132b565b5b6118c8848285016116a0565b91505092915050565b600081519050919050565b600082825260208201905092915050565b6000819050602082019050919050565b61190681611330565b82525050565b600082825260208201905092915050565b6000611928826113e3565b611932818561190c565b93506119428185602086016113ff565b61194b81611429565b840191505092915050565b600060a08301600083015161196e60008601826118fd565b5060208301518482036020860152611986828261191d565b915050604083015161199b60408601826118fd565b50606083015184820360608601526119b3828261191d565b91505060808301516119c860808601826118fd565b508091505092915050565b60006119df8383611956565b905092915050565b6000602082019050919050565b60006119ff826118d1565b611a0981856118dc565b935083602082028501611a1b856118ed565b8060005b85811015611a575784840389528151611a3885826119d3565b9450611a43836119e7565b925060208a01995050600181019050611a1f565b50829750879550505050505092915050565b60006020820190508181036000830152611a8381846119f4565b905092915050565b7f4e487b7100000000000000000000000000000000000000000000000000000000600052602260045260246000fd5b60006002820490506001821680611ad257607f821691505b602082108103611ae557611ae4611a8b565b5b50919050565b7f55736572206e6f7420666f756e64000000000000000000000000000000000000600082015250565b6000611b21600e836113ee565b9150611b2c82611aeb565b602082019050919050565b60006020820190508181036000830152611b5081611b14565b9050919050565b7f506f7374206e6f7420666f756e64000000000000000000000000000000000000600082015250565b6000611b8d600e836113ee565b9150611b9882611b57565b602082019050919050565b60006020820190508181036000830152611bbc81611b80565b9050919050565b7f4e487b7100000000000000000000000000000000000000000000000000000000600052601160045260246000fd5b6000611bfd82611330565b91507fffffffffffffffffffffffffffffffffffffffffffffffffffffffffffffffff8203611c2f57611c2e611bc3565b5b600182019050919050565b600081549050611c4981611aba565b9050919050565b60008190508160005260206000209050919050565b60008190508160005260206000209050919050565b60006020601f8301049050919050565b600082821b905092915050565b600060088302611cc77fffffffffffffffffffffffffffffffffffffffffffffffffffffffffffffffff82611c8a565b611cd18683611c8a565b95508019841693508086168417925050509392505050565b6000819050919050565b6000611d0e611d09611d0484611330565b611ce9565b611330565b9050919050565b6000819050919050565b611d2883611cf3565b611d3c611d3482611d15565b848454611c97565b825550505050565b600090565b611d51611d44565b611d5c818484611d1f565b505050565b5b81811015611d8057611d75600082611d49565b600181019050611d62565b5050565b601f821115611dc557611d9681611c50565b611d9f84611c7a565b81016020851015611dae578190505b611dc2611dba85611c7a565b830182611d61565b50505b505050565b600082821c905092915050565b6000611de860001984600802611dca565b1980831691505092915050565b6000611e018383611dd7565b9150826002028217905092915050565b818103611e1f575050611ef7565b611e2882611c3a565b67ffffffffffffffff811115611e4157611e406115a3565b5b611e4b8254611aba565b611e56828285611d84565b6000601f831160018114611e855760008415611e73578287015490505b611e7d8582611df5565b865550611ef0565b601f198416611e9387611c65565b9650611e9e86611c50565b60005b82811015611ec657848901548255600182019150600185019450602081019050611ea1565b86831015611ee35784890154611edf601f891682611dd7565b8355505b6001600288020188555050505b5050505050505b565b611f02826113e3565b67ffffffffffffffff811115611f1b57611f1a6115a3565b5b611f258254611aba565b611f30828285611d84565b600060209050601f831160018114611f635760008415611f51578287015190505b611f5b8582611df5565b865550611fc3565b601f198416611f7186611c50565b60005b82811015611f9957848901518255600182019150602085019450602081019050611f74565b86831015611fb65784890151611fb2601f891682611dd7565b8355505b6001600288020188555050505b505050505050565b7f416c7265616479206c696b656400000000000000000000000000000000000000600082015250565b6000612001600d836113ee565b915061200c82611fcb565b602082019050919050565b6000602082019050818103600083015261203081611ff4565b9050919050565b7f5573657220657869737473000000000000000000000000000000000000000000600082015250565b600061206d600b836113ee565b915061207882612037565b602082019050919050565b6000602082019050818103600083015261209c81612060565b9050919050565b7f4e487b7100000000000000000000000000000000000000000000000000000000600052603260045260246000fd5b7f4e6f74206c696b65642079657400000000000000000000000000000000000000600082015250565b6000612108600d836113ee565b9150612113826120d2565b602082019050919050565b60006020820190508181036000830152612137816120fb565b9050919050565b600061214982611330565b91506000820361215c5761215b611bc3565b5b60018203905091905056fea2646970667358221220bd5ef8d991b62f9d76d5337c5d7795aa34a74b08d2ba2b2e24194c93786adde764736f6c63430008140033",
  "linkReferences": {},
  "deployedLinkReferences": {}
}