{
  "_format": "hh-sol-artifact-1",
  "contractName": "SocialFeed",
  "sourceName": "contracts/SocialFeed.sol",
  "abi": [
    {
      "inputs": [],
      "name": "commentCount",
      "outputs": [
        {
          "internalType": "uint256",
          "name": "",
          "type": "uint256"
        }
      ],
      "stateMutability": "view",
      "type": "function"
    },
    {
      "inputs": [
        {
          "internalType": "uint256",
          "name": "_postId",
          "type": "uint256"
        },
        {
          "internalType": "string",
          "name": "_content",
          "type": "string"
        }
      ],
      "name": "commentOnPost",
      "outputs": [],
      "stateMutability": "nonpayable",
      "type": "function"
    },
    {
      "inputs": [
        {
          "internalType": "uint256",
          "name": "",
          "type": "uint256"
        }
      ],
      "name": "comments",
      "outputs": [
        {
          "internalType": "uint256",
          "name": "commentId",
          "type": "uint256"
        },
        {
          "internalType": "string",
          "name": "authorUsername",
          "type": "string"
        },
        {
          "internalType": "uint256",
          "name": "postId",
          "type": "uint256"
        },
        {
          "internalType": "string",
          "name": "content",
          "type": "string"
        },
        {
          "internalType": "uint256",
          "name": "timestamp",
          "type": "uint256"
        }
      ],
      "stateMutability": "view",
      "type": "function"
    },
    {
      "inputs": [
        {
          "internalType": "string",
          "name": "_content",
          "type": "string"
        }
      ],
      "name": "createPost",
      "outputs": [],
      "stateMutability": "nonpayable",
      "type": "function"
    },
    {
      "inputs": [
        {
          "internalType": "string",
          "name": "_username",
          "type": "string"
        },
        {
          "internalType": "string",
          "name": "_bio",
          "type": "string"
        }
      ],
      "name": "createUser",
      "outputs": [],
      "stateMutability": "nonpayable",
      "type": "function"
    },
    {
      "inputs": [
        {
          "internalType": "uint256",
          "name": "_postId",
          "type": "uint256"
        }
      ],
      "name": "getCommentsForPost",
      "outputs": [
        {
          "components": [
            {
              "internalType": "uint256",
              "name": "commentId",
              "type": "uint256"
            },
            {
              "internalType": "string",
              "name": "authorUsername",
              "type": "string"
            },
            {
              "internalType": "uint256",
              "name": "postId",
              "type": "uint256"
            },
            {
              "internalType": "string",
              "name": "content",
              "type": "string"
            },
            {
              "internalType": "uint256",
              "name": "timestamp",
              "type": "uint256"
            }
          ],
          "internalType": "struct SocialFeed.Comment[]",
          "name": "",
          "type": "tuple[]"
        }
      ],
      "stateMutability": "view",
      "type": "function"
    },
    {
      "inputs": [
        {
          "internalType": "uint256",
          "name": "_postId",
          "type": "uint256"
        }
      ],
      "name": "getPostAuthorUsername",
      "outputs": [
        {
          "internalType": "string",
          "name": "",
          "type": "string"
        }
      ],
      "stateMutability": "view",
      "type": "function"
    },
    {
      "inputs": [
        {
          "internalType": "uint256",
          "name": "_postId",
          "type": "uint256"
        }
      ],
      "name": "getPostLikes",
      "outputs": [
        {
          "internalType": "uint256",
          "name": "",
          "type": "uint256"
        }
      ],
      "stateMutability": "view",
      "type": "function"
    },
    {
      "inputs": [
        {
          "internalType": "uint256",
          "name": "_postId",
          "type": "uint256"
        },
        {
          "internalType": "address",
          "name": "_user",
          "type": "address"
        }
      ],
      "name": "isPostLikedByUser",
      "outputs": [
        {
          "internalType": "bool",
          "name": "",
          "type": "bool"
        }
      ],
      "stateMutability": "view",
      "type": "function"
    },
    {
      "inputs": [
        {
          "internalType": "address",
          "name": "_user",
          "type": "address"
        }
      ],
      "name": "isUserRegistered",
      "outputs": [
        {
          "internalType": "bool",
          "name": "",
          "type": "bool"
        }
      ],
      "stateMutability": "view",
      "type": "function"
    },
    {
      "inputs": [
        {
          "internalType": "uint256",
          "name": "_postId",
          "type": "uint256"
        }
      ],
      "name": "likePost",
      "outputs": [],
      "stateMutability": "nonpayable",
      "type": "function"
    },
    {
      "inputs": [],
      "name": "postCount",
      "outputs": [
        {
          "internalType": "uint256",
          "name": "",
          "type": "uint256"
        }
      ],
      "stateMutability": "view",
      "type": "function"
    },
    {
      "inputs": [
        {
          "internalType": "uint256",
          "name": "",
          "type": "uint256"
        }
      ],
      "name": "posts",
      "outputs": [
        {
          "internalType": "uint256",
          "name": "postId",
          "type": "uint256"
        },
        {
          "internalType": "address",
          "name": "author",
          "type": "address"
        },
        {
          "internalType": "string",
          "name": "content",
          "type": "string"
        },
        {
          "internalType": "uint256",
          "name": "likes",
          "type": "uint256"
        },
        {
          "internalType": "uint256",
          "name": "timestamp",
          "type": "uint256"
        }
      ],
      "stateMutability": "view",
      "type": "function"
    },
    {
      "inputs": [
        {
          "internalType": "uint256",
          "name": "_postId",
          "type": "uint256"
        }
      ],
      "name": "unlikePost",
      "outputs": [],
      "stateMutability": "nonpayable",
      "type": "function"
    },
    {
      "inputs": [
        {
          "internalType": "address",
          "name": "",
          "type": "address"
        }
      ],
      "name": "users",
      "outputs": [
        {
          "internalType": "address",
          "name": "userAddress",
          "type": "address"
        },
        {
          "internalType": "string",
          "name": "username",
          "type": "string"
        },
        {
          "internalType": "string",
          "name": "bio",
          "type": "string"
        }
      ],
      "stateMutability": "view",
      "type": "function"
    }
  ],
  "bytecode": "0x608060405234801561001057600080fd5b506121f8806100206000396000f3fe608060405234801561001057600080fd5b50600436106100f55760003560e01c806387b162b511610097578063b0b2671d11610066578063b0b2671d146102b4578063c7303c61146102e4578063f80ad44a14610300578063fa188de914610330576100f5565b806387b162b5146102025780638c852d911461021e5780638ebb4c151461024e578063a87430ba14610282576100f5565b806317906c2e116100d357806317906c2e1461018e57806345ff20de146101ac57806364732154146101ca578063725009d3146101e6576100f5565b80630b1e7f83146100fa578063163f75221461012e57806316e6da3c1461015e575b600080fd5b610114600480360381019061010f91906113c1565b61034c565b6040516101259594939291906114ce565b60405180910390f35b61014860048036038101906101439190611554565b61042a565b604051610155919061159c565b60405180910390f35b610178600480360381019061017391906113c1565b610484565b60405161018591906115b7565b60405180910390f35b61019661058d565b6040516101a391906115d9565b60405180910390f35b6101b4610593565b6040516101c191906115d9565b60405180910390f35b6101e460048036038101906101df9190611729565b610599565b005b61020060048036038101906101fb91906113c1565b61077c565b005b61021c60048036038101906102179190611785565b610975565b005b610238600480360381019061023391906117fd565b610aee565b604051610245919061159c565b60405180910390f35b610268600480360381019061026391906113c1565b610b59565b60405161027995949392919061183d565b60405180910390f35b61029c60048036038101906102979190611554565b610c9f565b6040516102ab9392919061189e565b60405180910390f35b6102ce60048036038101906102c991906113c1565b610df9565b6040516102db91906115d9565b60405180910390f35b6102fe60048036038101906102f991906118e3565b610e19565b005b61031a600480360381019061031591906113c1565b610eff565b6040516103279190611ac4565b60405180910390f35b61034a600480360381019061034591906113c1565b611150565b005b60016020528060005260406000206000915090508060000154908060010160009054906101000a900473ffffffffffffffffffffffffffffffffffffffff169080600201805461039b90611b15565b80601f01602080910402602001604051908101604052809291908181526020018280546103c790611b15565b80156104145780601f106103e957610100808354040283529160200191610414565b820191906000526020600020905b8154815290600101906020018083116103f757829003601f168201915b5050505050908060030154908060060154905085565b6000806000808473ffffffffffffffffffffffffffffffffffffffff1673ffffffffffffffffffffffffffffffffffffffff168152602001908152602001600020600101805461047990611b15565b905014159050919050565b60606000806001600085815260200190815260200160002060010160009054906101000a900473ffffffffffffffffffffffffffffffffffffffff1673ffffffffffffffffffffffffffffffffffffffff1673ffffffffffffffffffffffffffffffffffffffff168152602001908152602001600020600101805461050890611b15565b80601f016020809104026020016040519081016040528092919081815260200182805461053490611b15565b80156105815780601f1061055657610100808354040283529160200191610581565b820191906000526020600020905b81548152906001019060200180831161056457829003601f168201915b50505050509050919050565b60035481565b60045481565b6105a23361042a565b6105e1576040517f08c379a00000000000000000000000000000000000000000000000000000000081526004016105d890611b92565b60405180910390fd5b600073ffffffffffffffffffffffffffffffffffffffff166001600084815260200190815260200160002060010160009054906101000a900473ffffffffffffffffffffffffffffffffffffffff1673ffffffffffffffffffffffffffffffffffffffff1603610686576040517f08c379a000000000000000000000000000000000000000000000000000000000815260040161067d90611bfe565b60405180910390fd5b6004600081548092919061069990611c4d565b91905055506000600260006004548152602001908152602001600020905060045481600001819055506000803373ffffffffffffffffffffffffffffffffffffffff1673ffffffffffffffffffffffffffffffffffffffff1681526020019081526020016000206001018160010190816107139190611e6c565b508281600201819055508181600301908161072e9190611f54565b50428160040181905550600160008481526020019081526020016000206004016004549080600181540180825580915050600190039060005260206000200160009091909190915055505050565b6107853361042a565b6107c4576040517f08c379a00000000000000000000000000000000000000000000000000000000081526004016107bb90611b92565b60405180910390fd5b6000600160008381526020019081526020016000209050600073ffffffffffffffffffffffffffffffffffffffff168160010160009054906101000a900473ffffffffffffffffffffffffffffffffffffffff1673ffffffffffffffffffffffffffffffffffffffff160361086e576040517f08c379a000000000000000000000000000000000000000000000000000000000815260040161086590611bfe565b60405180910390fd5b8060050160003373ffffffffffffffffffffffffffffffffffffffff1673ffffffffffffffffffffffffffffffffffffffff16815260200190815260200160002060009054906101000a900460ff16156108fd576040517f08c379a00000000000000000000000000000000000000000000000000000000081526004016108f490612072565b60405180910390fd5b80600301600081548092919061091290611c4d565b919050555060018160050160003373ffffffffffffffffffffffffffffffffffffffff1673ffffffffffffffffffffffffffffffffffffffff16815260200190815260200160002060006101000a81548160ff0219169083151502179055505050565b60008060003373ffffffffffffffffffffffffffffffffffffffff1673ffffffffffffffffffffffffffffffffffffffff16815260200190815260200160002060010180546109c390611b15565b905014610a05576040517f08c379a00000000000000000000000000000000000000000000000000000000081526004016109fc906120de565b60405180910390fd5b60405180606001604052803373ffffffffffffffffffffffffffffffffffffffff168152602001838152602001828152506000803373ffffffffffffffffffffffffffffffffffffffff1673ffffffffffffffffffffffffffffffffffffffff16815260200190815260200160002060008201518160000160006101000a81548173ffffffffffffffffffffffffffffffffffffffff021916908373ffffffffffffffffffffffffffffffffffffffff1602179055506020820151816001019081610ad09190611f54565b506040820151816002019081610ae69190611f54565b509050505050565b60006001600084815260200190815260200160002060050160008373ffffffffffffffffffffffffffffffffffffffff1673ffffffffffffffffffffffffffffffffffffffff16815260200190815260200160002060009054906101000a900460ff16905092915050565b6002602052806000526040600020600091509050806000015490806001018054610b8290611b15565b80601f0160208091040260200160405190810160405280929190818152602001828054610bae90611b15565b8015610bfb5780601f10610bd057610100808354040283529160200191610bfb565b820191906000526020600020905b815481529060010190602001808311610bde57829003601f168201915b505050505090806002015490806003018054610c1690611b15565b80601f0160208091040260200160405190810160405280929190818152602001828054610c4290611b15565b8015610c8f5780601f10610c6457610100808354040283529160200191610c8f565b820191906000526020600020905b815481529060010190602001808311610c7257829003601f168201915b5050505050908060040154905085565b60006020528060005260406000206000915090508060000160009054906101000a900473ffffffffffffffffffffffffffffffffffffffff1690806001018054610ce890611b15565b80601f0160208091040260200160405190810160405280929190818152602001828054610d1490611b15565b8015610d615780601f10610d3657610100808354040283529160200191610d61565b820191906000526020600020905b815481529060010190602001808311610d4457829003601f168201915b505050505090806002018054610d7690611b15565b80601f0160208091040260200160405190810160405280929190818152602001828054610da290611b15565b8015610def5780601f10610dc457610100808354040283529160200191610def565b820191906000526020600020905b815481529060010190602001808311610dd257829003601f168201915b5050505050905083565b600060016000838152602001908152602001600020600301549050919050565b610e223361042a565b610e61576040517f08c379a0000000000000000000000000000000000000000000000000000000008152600401610e5890611b92565b60405180910390fd5b60036000815480929190610e7490611c4d565b9190505550600060016000600354815260200190815260200160002090506003548160000181905550338160010160006101000a81548173ffffffffffffffffffffffffffffffffffffffff021916908373ffffffffffffffffffffffffffffffffffffffff16021790555081816002019081610ef19190611f54565b504281600601819055505050565b606060006001600084815260200190815260200160002060040180549050905060008167ffffffffffffffff811115610f3b57610f3a6115fe565b5b604051908082528060200260200182016040528015610f7457816020015b610f61611348565b815260200190600190039081610f595790505b50905060005b828110156111455760026000600160008881526020019081526020016000206004018381548110610fae57610fad6120fe565b5b906000526020600020015481526020019081526020016000206040518060a001604052908160008201548152602001600182018054610fec90611b15565b80601f016020809104026020016040519081016040528092919081815260200182805461101890611b15565b80156110655780601f1061103a57610100808354040283529160200191611065565b820191906000526020600020905b81548152906001019060200180831161104857829003601f168201915b505050505081526020016002820154815260200160038201805461108890611b15565b80601f01602080910402602001604051908101604052809291908181526020018280546110b490611b15565b80156111015780601f106110d657610100808354040283529160200191611101565b820191906000526020600020905b8154815290600101906020018083116110e457829003601f168201915b50505050508152602001600482015481525050828281518110611127576111266120fe565b5b6020026020010181905250808061113d90611c4d565b915050610f7a565b508092505050919050565b6111593361042a565b611198576040517f08c379a000000000000000000000000000000000000000000000000000000000815260040161118f90611b92565b60405180910390fd5b6000600160008381526020019081526020016000209050600073ffffffffffffffffffffffffffffffffffffffff168160010160009054906101000a900473ffffffffffffffffffffffffffffffffffffffff1673ffffffffffffffffffffffffffffffffffffffff1603611242576040517f08c379a000000000000000000000000000000000000000000000000000000000815260040161123990611bfe565b60405180910390fd5b8060050160003373ffffffffffffffffffffffffffffffffffffffff1673ffffffffffffffffffffffffffffffffffffffff16815260200190815260200160002060009054906101000a900460ff166112d0576040517f08c379a00000000000000000000000000000000000000000000000000000000081526004016112c790612179565b60405180910390fd5b8060030160008154809291906112e590612199565b919050555060008160050160003373ffffffffffffffffffffffffffffffffffffffff1673ffffffffffffffffffffffffffffffffffffffff16815260200190815260200160002060006101000a81548160ff0219169083151502179055505050565b6040518060a0016040528060008152602001606081526020016000815260200160608152602001600081525090565b6000604051905090565b600080fd5b600080fd5b6000819050919050565b61139e8161138b565b81146113a957600080fd5b50565b6000813590506113bb81611395565b92915050565b6000602082840312156113d7576113d6611381565b5b60006113e5848285016113ac565b91505092915050565b6113f78161138b565b82525050565b600073ffffffffffffffffffffffffffffffffffffffff82169050919050565b6000611428826113fd565b9050919050565b6114388161141d565b82525050565b600081519050919050565b600082825260208201905092915050565b60005b8381101561147857808201518184015260208101905061145d565b60008484015250505050565b6000601f19601f8301169050919050565b60006114a08261143e565b6114aa8185611449565b93506114ba81856020860161145a565b6114c381611484565b840191505092915050565b600060a0820190506114e360008301886113ee565b6114f0602083018761142f565b81810360408301526115028186611495565b905061151160608301856113ee565b61151e60808301846113ee565b9695505050505050565b6115318161141d565b811461153c57600080fd5b50565b60008135905061154e81611528565b92915050565b60006020828403121561156a57611569611381565b5b60006115788482850161153f565b91505092915050565b60008115159050919050565b61159681611581565b82525050565b60006020820190506115b1600083018461158d565b92915050565b600060208201905081810360008301526115d18184611495565b905092915050565b60006020820190506115ee60008301846113ee565b92915050565b600080fd5b600080fd5b7f4e487b7100000000000000000000000000000000000000000000000000000000600052604160045260246000fd5b61163682611484565b810181811067ffffffffffffffff82111715611655576116546115fe565b5b80604052505050565b6000611668611377565b9050611674828261162d565b919050565b600067ffffffffffffffff821115611694576116936115fe565b5b61169d82611484565b9050602081019050919050565b82818337600083830152505050565b60006116cc6116c784611679565b61165e565b9050828152602081018484840111156116e8576116e76115f9565b5b6116f38482856116aa565b509392505050565b600082601f8301126117105761170f6115f4565b5b81356117208482602086016116b9565b91505092915050565b600080604083850312156117405761173f611381565b5b600061174e858286016113ac565b925050602083013567ffffffffffffffff81111561176f5761176e611386565b5b61177b858286016116fb565b9150509250929050565b6000806040838503121561179c5761179b611381565b5b600083013567ffffffffffffffff8111156117ba576117b9611386565b5b6117c6858286016116fb565b925050602083013567ffffffffffffffff8111156117e7576117e6611386565b5b6117f3858286016116fb565b9150509250929050565b6000806040838503121561181457611813611381565b5b6000611822858286016113ac565b92505060206118338582860161153f565b9150509250929050565b600060a08201905061185260008301886113ee565b81810360208301526118648187611495565b905061187360408301866113ee565b81810360608301526118858185611495565b905061189460808301846113ee565b9695505050505050565b60006060820190506118b3600083018661142f565b81810360208301526118c58185611495565b905081810360408301526118d98184611495565b9050949350505050565b6000602082840312156118f9576118f8611381565b5b600082013567ffffffffffffffff81111561191757611916611386565b5b611923848285016116fb565b91505092915050565b600081519050919050565b600082825260208201905092915050565b6000819050602082019050919050565b6119618161138b565b82525050565b600082825260208201905092915050565b60006119838261143e565b61198d8185611967565b935061199d81856020860161145a565b6119a681611484565b840191505092915050565b600060a0830160008301516119c96000860182611958565b50602083015184820360208601526119e18282611978565b91505060408301516119f66040860182611958565b5060608301518482036060860152611a0e8282611978565b9150506080830151611a236080860182611958565b508091505092915050565b6000611a3a83836119b1565b905092915050565b6000602082019050919050565b6000611a5a8261192c565b611a648185611937565b935083602082028501611a7685611948565b8060005b85811015611ab25784840389528151611a938582611a2e565b9450611a9e83611a42565b925060208a01995050600181019050611a7a565b50829750879550505050505092915050565b60006020820190508181036000830152611ade8184611a4f565b905092915050565b7f4e487b7100000000000000000000000000000000000000000000000000000000600052602260045260246000fd5b60006002820490506001821680611b2d57607f821691505b602082108103611b4057611b3f611ae6565b5b50919050565b7f55736572206e6f7420666f756e64000000000000000000000000000000000000600082015250565b6000611b7c600e83611449565b9150611b8782611b46565b602082019050919050565b60006020820190508181036000830152611bab81611b6f565b9050919050565b7f506f7374206e6f7420666f756e64000000000000000000000000000000000000600082015250565b6000611be8600e83611449565b9150611bf382611bb2565b602082019050919050565b60006020820190508181036000830152611c1781611bdb565b9050919050565b7f4e487b7100000000000000000000000000000000000000000000000000000000600052601160045260246000fd5b6000611c588261138b565b91507fffffffffffffffffffffffffffffffffffffffffffffffffffffffffffffffff8203611c8a57611c89611c1e565b5b600182019050919050565b600081549050611ca481611b15565b9050919050565b60008190508160005260206000209050919050565b60008190508160005260206000209050919050565b60006020601f8301049050919050565b600082821b905092915050565b600060088302611d227fffffffffffffffffffffffffffffffffffffffffffffffffffffffffffffffff82611ce5565b611d2c8683611ce5565b95508019841693508086168417925050509392505050565b6000819050919050565b6000611d69611d64611d5f8461138b565b611d44565b61138b565b9050919050565b6000819050919050565b611d8383611d4e565b611d97611d8f82611d70565b848454611cf2565b825550505050565b600090565b611dac611d9f565b611db7818484611d7a565b505050565b5b81811015611ddb57611dd0600082611da4565b600181019050611dbd565b5050565b601f821115611e2057611df181611cab565b611dfa84611cd5565b81016020851015611e09578190505b611e1d611e1585611cd5565b830182611dbc565b50505b505050565b600082821c905092915050565b6000611e4360001984600802611e25565b1980831691505092915050565b6000611e5c8383611e32565b9150826002028217905092915050565b818103611e7a575050611f52565b611e8382611c95565b67ffffffffffffffff811115611e9c57611e9b6115fe565b5b611ea68254611b15565b611eb1828285611ddf565b6000601f831160018114611ee05760008415611ece578287015490505b611ed88582611e50565b865550611f4b565b601f198416611eee87611cc0565b9650611ef986611cab565b60005b82811015611f2157848901548255600182019150600185019450602081019050611efc565b86831015611f3e5784890154611f3a601f891682611e32565b8355505b6001600288020188555050505b5050505050505b565b611f5d8261143e565b67ffffffffffffffff811115611f7657611f756115fe565b5b611f808254611b15565b611f8b828285611ddf565b600060209050601f831160018114611fbe5760008415611fac578287015190505b611fb68582611e50565b86555061201e565b601f198416611fcc86611cab565b60005b82811015611ff457848901518255600182019150602085019450602081019050611fcf565b86831015612011578489015161200d601f891682611e32565b8355505b6001600288020188555050505b505050505050565b7f416c7265616479206c696b656400000000000000000000000000000000000000600082015250565b600061205c600d83611449565b915061206782612026565b602082019050919050565b6000602082019050818103600083015261208b8161204f565b9050919050565b7f5573657220657869737473000000000000000000000000000000000000000000600082015250565b60006120c8600b83611449565b91506120d382612092565b602082019050919050565b600060208201905081810360008301526120f7816120bb565b9050919050565b7f4e487b7100000000000000000000000000000000000000000000000000000000600052603260045260246000fd5b7f4e6f74206c696b65642079657400000000000000000000000000000000000000600082015250565b6000612163600d83611449565b915061216e8261212d565b602082019050919050565b6000602082019050818103600083015261219281612156565b9050919050565b60006121a48261138b565b9150600082036121b7576121b6611c1e565b5b60018203905091905056fea2646970667358221220fdb8841ac7029b06636b5081b443dc49edf68a5cb35a82c2b27a67fc4505957c64736f6c63430008140033",
  "linkReferences": {},
  "deployedLinkReferences": {}
}