{
  "_format": "hh-sol-artifact-1",
  "contractName": "SocialFeed",
  "sourceName": "contracts/SocialFeed.sol",
  "abi": [
    {
      "inputs": [],
      "name": "commentCount",
      "outputs": [
        {
          "internalType": "uint256",
          "name": "",
          "type": "uint256"
        }
      ],
      "stateMutability": "view",
      "type": "function"
    },
    {
      "inputs": [
        {
          "internalType": "uint256",
          "name": "_postId",
          "type": "uint256"
        },
        {
          "internalType": "string",
          "name": "_content",
          "type": "string"
        }
      ],
      "name": "commentOnPost",
      "outputs": [],
      "stateMutability": "nonpayable",
      "type": "function"
    },
    {
      "inputs": [
        {
          "internalType": "uint256",
          "name": "",
          "type": "uint256"
        }
      ],
      "name": "comments",
      "outputs": [
        {
          "internalType": "uint256",
          "name": "commentId",
          "type": "uint256"
        },
        {
          "internalType": "string",
          "name": "authorUsername",
          "type": "string"
        },
        {
          "internalType": "uint256",
          "name": "postId",
          "type": "uint256"
        },
        {
          "internalType": "string",
          "name": "content",
          "type": "string"
        }
      ],
      "stateMutability": "view",
      "type": "function"
    },
    {
      "inputs": [
        {
          "internalType": "string",
          "name": "_content",
          "type": "string"
        }
      ],
      "name": "createPost",
      "outputs": [],
      "stateMutability": "nonpayable",
      "type": "function"
    },
    {
      "inputs": [
        {
          "internalType": "string",
          "name": "_username",
          "type": "string"
        },
        {
          "internalType": "string",
          "name": "_bio",
          "type": "string"
        }
      ],
      "name": "createUser",
      "outputs": [],
      "stateMutability": "nonpayable",
      "type": "function"
    },
    {
      "inputs": [
        {
          "internalType": "uint256",
          "name": "_postId",
          "type": "uint256"
        }
      ],
      "name": "getCommentsForPost",
      "outputs": [
        {
          "components": [
            {
              "internalType": "uint256",
              "name": "commentId",
              "type": "uint256"
            },
            {
              "internalType": "string",
              "name": "authorUsername",
              "type": "string"
            },
            {
              "internalType": "uint256",
              "name": "postId",
              "type": "uint256"
            },
            {
              "internalType": "string",
              "name": "content",
              "type": "string"
            }
          ],
          "internalType": "struct SocialFeed.Comment[]",
          "name": "",
          "type": "tuple[]"
        }
      ],
      "stateMutability": "view",
      "type": "function"
    },
    {
      "inputs": [
        {
          "internalType": "uint256",
          "name": "_postId",
          "type": "uint256"
        }
      ],
      "name": "getPostAuthorUsername",
      "outputs": [
        {
          "internalType": "string",
          "name": "",
          "type": "string"
        }
      ],
      "stateMutability": "view",
      "type": "function"
    },
    {
      "inputs": [
        {
          "internalType": "uint256",
          "name": "_postId",
          "type": "uint256"
        },
        {
          "internalType": "address",
          "name": "_user",
          "type": "address"
        }
      ],
      "name": "isPostLikedByUser",
      "outputs": [
        {
          "internalType": "bool",
          "name": "",
          "type": "bool"
        }
      ],
      "stateMutability": "view",
      "type": "function"
    },
    {
      "inputs": [
        {
          "internalType": "address",
          "name": "_user",
          "type": "address"
        }
      ],
      "name": "isUserRegistered",
      "outputs": [
        {
          "internalType": "bool",
          "name": "",
          "type": "bool"
        }
      ],
      "stateMutability": "view",
      "type": "function"
    },
    {
      "inputs": [
        {
          "internalType": "uint256",
          "name": "_postId",
          "type": "uint256"
        }
      ],
      "name": "likePost",
      "outputs": [],
      "stateMutability": "nonpayable",
      "type": "function"
    },
    {
      "inputs": [],
      "name": "postCount",
      "outputs": [
        {
          "internalType": "uint256",
          "name": "",
          "type": "uint256"
        }
      ],
      "stateMutability": "view",
      "type": "function"
    },
    {
      "inputs": [
        {
          "internalType": "uint256",
          "name": "",
          "type": "uint256"
        }
      ],
      "name": "posts",
      "outputs": [
        {
          "internalType": "uint256",
          "name": "postId",
          "type": "uint256"
        },
        {
          "internalType": "address",
          "name": "author",
          "type": "address"
        },
        {
          "internalType": "string",
          "name": "content",
          "type": "string"
        },
        {
          "internalType": "uint256",
          "name": "likes",
          "type": "uint256"
        }
      ],
      "stateMutability": "view",
      "type": "function"
    },
    {
      "inputs": [
        {
          "internalType": "uint256",
          "name": "_postId",
          "type": "uint256"
        }
      ],
      "name": "unlikePost",
      "outputs": [],
      "stateMutability": "nonpayable",
      "type": "function"
    },
    {
      "inputs": [
        {
          "internalType": "address",
          "name": "",
          "type": "address"
        }
      ],
      "name": "users",
      "outputs": [
        {
          "internalType": "address",
          "name": "userAddress",
          "type": "address"
        },
        {
          "internalType": "string",
          "name": "username",
          "type": "string"
        },
        {
          "internalType": "string",
          "name": "bio",
          "type": "string"
        }
      ],
      "stateMutability": "view",
      "type": "function"
    }
  ],
  "bytecode": "0x608060405234801561001057600080fd5b5061213d806100206000396000f3fe608060405234801561001057600080fd5b50600436106100ea5760003560e01c806387b162b51161008c578063a87430ba11610066578063a87430ba14610275578063c7303c61146102a7578063f80ad44a146102c3578063fa188de9146102f3576100ea565b806387b162b5146101f65780638c852d91146102125780638ebb4c1514610242576100ea565b806317906c2e116100c857806317906c2e1461018257806345ff20de146101a057806364732154146101be578063725009d3146101da576100ea565b80630b1e7f83146100ef578063163f75221461012257806316e6da3c14610152575b600080fd5b61010960048036038101906101049190611335565b61030f565b6040516101199493929190611442565b60405180910390f35b61013c600480360381019061013791906114ba565b6103e7565b6040516101499190611502565b60405180910390f35b61016c60048036038101906101679190611335565b610441565b604051610179919061151d565b60405180910390f35b61018a61054a565b604051610197919061153f565b60405180910390f35b6101a8610550565b6040516101b5919061153f565b60405180910390f35b6101d860048036038101906101d3919061168f565b610556565b005b6101f460048036038101906101ef9190611335565b610730565b005b610210600480360381019061020b91906116eb565b610929565b005b61022c60048036038101906102279190611763565b610aa2565b6040516102399190611502565b60405180910390f35b61025c60048036038101906102579190611335565b610b0d565b60405161026c94939291906117a3565b60405180910390f35b61028f600480360381019061028a91906114ba565b610c4d565b60405161029e939291906117f6565b60405180910390f35b6102c160048036038101906102bc919061183b565b610da7565b005b6102dd60048036038101906102d89190611335565b610e84565b6040516102ea9190611a09565b60405180910390f35b61030d60048036038101906103089190611335565b6110cb565b005b60016020528060005260406000206000915090508060000154908060010160009054906101000a900473ffffffffffffffffffffffffffffffffffffffff169080600201805461035e90611a5a565b80601f016020809104026020016040519081016040528092919081815260200182805461038a90611a5a565b80156103d75780601f106103ac576101008083540402835291602001916103d7565b820191906000526020600020905b8154815290600101906020018083116103ba57829003601f168201915b5050505050908060030154905084565b6000806000808473ffffffffffffffffffffffffffffffffffffffff1673ffffffffffffffffffffffffffffffffffffffff168152602001908152602001600020600101805461043690611a5a565b905014159050919050565b60606000806001600085815260200190815260200160002060010160009054906101000a900473ffffffffffffffffffffffffffffffffffffffff1673ffffffffffffffffffffffffffffffffffffffff1673ffffffffffffffffffffffffffffffffffffffff16815260200190815260200160002060010180546104c590611a5a565b80601f01602080910402602001604051908101604052809291908181526020018280546104f190611a5a565b801561053e5780601f106105135761010080835404028352916020019161053e565b820191906000526020600020905b81548152906001019060200180831161052157829003601f168201915b50505050509050919050565b60035481565b60045481565b61055f336103e7565b61059e576040517f08c379a000000000000000000000000000000000000000000000000000000000815260040161059590611ad7565b60405180910390fd5b600073ffffffffffffffffffffffffffffffffffffffff166001600084815260200190815260200160002060010160009054906101000a900473ffffffffffffffffffffffffffffffffffffffff1673ffffffffffffffffffffffffffffffffffffffff1603610643576040517f08c379a000000000000000000000000000000000000000000000000000000000815260040161063a90611b43565b60405180910390fd5b6004600081548092919061065690611b92565b91905055506000600260006004548152602001908152602001600020905060045481600001819055506000803373ffffffffffffffffffffffffffffffffffffffff1673ffffffffffffffffffffffffffffffffffffffff1681526020019081526020016000206001018160010190816106d09190611db1565b50828160020181905550818160030190816106eb9190611e99565b50600160008481526020019081526020016000206004016004549080600181540180825580915050600190039060005260206000200160009091909190915055505050565b610739336103e7565b610778576040517f08c379a000000000000000000000000000000000000000000000000000000000815260040161076f90611ad7565b60405180910390fd5b6000600160008381526020019081526020016000209050600073ffffffffffffffffffffffffffffffffffffffff168160010160009054906101000a900473ffffffffffffffffffffffffffffffffffffffff1673ffffffffffffffffffffffffffffffffffffffff1603610822576040517f08c379a000000000000000000000000000000000000000000000000000000000815260040161081990611b43565b60405180910390fd5b8060050160003373ffffffffffffffffffffffffffffffffffffffff1673ffffffffffffffffffffffffffffffffffffffff16815260200190815260200160002060009054906101000a900460ff16156108b1576040517f08c379a00000000000000000000000000000000000000000000000000000000081526004016108a890611fb7565b60405180910390fd5b8060030160008154809291906108c690611b92565b919050555060018160050160003373ffffffffffffffffffffffffffffffffffffffff1673ffffffffffffffffffffffffffffffffffffffff16815260200190815260200160002060006101000a81548160ff0219169083151502179055505050565b60008060003373ffffffffffffffffffffffffffffffffffffffff1673ffffffffffffffffffffffffffffffffffffffff168152602001908152602001600020600101805461097790611a5a565b9050146109b9576040517f08c379a00000000000000000000000000000000000000000000000000000000081526004016109b090612023565b60405180910390fd5b60405180606001604052803373ffffffffffffffffffffffffffffffffffffffff168152602001838152602001828152506000803373ffffffffffffffffffffffffffffffffffffffff1673ffffffffffffffffffffffffffffffffffffffff16815260200190815260200160002060008201518160000160006101000a81548173ffffffffffffffffffffffffffffffffffffffff021916908373ffffffffffffffffffffffffffffffffffffffff1602179055506020820151816001019081610a849190611e99565b506040820151816002019081610a9a9190611e99565b509050505050565b60006001600084815260200190815260200160002060050160008373ffffffffffffffffffffffffffffffffffffffff1673ffffffffffffffffffffffffffffffffffffffff16815260200190815260200160002060009054906101000a900460ff16905092915050565b6002602052806000526040600020600091509050806000015490806001018054610b3690611a5a565b80601f0160208091040260200160405190810160405280929190818152602001828054610b6290611a5a565b8015610baf5780601f10610b8457610100808354040283529160200191610baf565b820191906000526020600020905b815481529060010190602001808311610b9257829003601f168201915b505050505090806002015490806003018054610bca90611a5a565b80601f0160208091040260200160405190810160405280929190818152602001828054610bf690611a5a565b8015610c435780601f10610c1857610100808354040283529160200191610c43565b820191906000526020600020905b815481529060010190602001808311610c2657829003601f168201915b5050505050905084565b60006020528060005260406000206000915090508060000160009054906101000a900473ffffffffffffffffffffffffffffffffffffffff1690806001018054610c9690611a5a565b80601f0160208091040260200160405190810160405280929190818152602001828054610cc290611a5a565b8015610d0f5780601f10610ce457610100808354040283529160200191610d0f565b820191906000526020600020905b815481529060010190602001808311610cf257829003601f168201915b505050505090806002018054610d2490611a5a565b80601f0160208091040260200160405190810160405280929190818152602001828054610d5090611a5a565b8015610d9d5780601f10610d7257610100808354040283529160200191610d9d565b820191906000526020600020905b815481529060010190602001808311610d8057829003601f168201915b5050505050905083565b610db0336103e7565b610def576040517f08c379a0000000000000000000000000000000000000000000000000000000008152600401610de690611ad7565b60405180910390fd5b60036000815480929190610e0290611b92565b9190505550600060016000600354815260200190815260200160002090506003548160000181905550338160010160006101000a81548173ffffffffffffffffffffffffffffffffffffffff021916908373ffffffffffffffffffffffffffffffffffffffff16021790555081816002019081610e7f9190611e99565b505050565b606060006001600084815260200190815260200160002060040180549050905060008167ffffffffffffffff811115610ec057610ebf611564565b5b604051908082528060200260200182016040528015610ef957816020015b610ee66112c3565b815260200190600190039081610ede5790505b50905060005b828110156110c05760026000600160008881526020019081526020016000206004018381548110610f3357610f32612043565b5b9060005260206000200154815260200190815260200160002060405180608001604052908160008201548152602001600182018054610f7190611a5a565b80601f0160208091040260200160405190810160405280929190818152602001828054610f9d90611a5a565b8015610fea5780601f10610fbf57610100808354040283529160200191610fea565b820191906000526020600020905b815481529060010190602001808311610fcd57829003601f168201915b505050505081526020016002820154815260200160038201805461100d90611a5a565b80601f016020809104026020016040519081016040528092919081815260200182805461103990611a5a565b80156110865780601f1061105b57610100808354040283529160200191611086565b820191906000526020600020905b81548152906001019060200180831161106957829003601f168201915b5050505050815250508282815181106110a2576110a1612043565b5b602002602001018190525080806110b890611b92565b915050610eff565b508092505050919050565b6110d4336103e7565b611113576040517f08c379a000000000000000000000000000000000000000000000000000000000815260040161110a90611ad7565b60405180910390fd5b6000600160008381526020019081526020016000209050600073ffffffffffffffffffffffffffffffffffffffff168160010160009054906101000a900473ffffffffffffffffffffffffffffffffffffffff1673ffffffffffffffffffffffffffffffffffffffff16036111bd576040517f08c379a00000000000000000000000000000000000000000000000000000000081526004016111b490611b43565b60405180910390fd5b8060050160003373ffffffffffffffffffffffffffffffffffffffff1673ffffffffffffffffffffffffffffffffffffffff16815260200190815260200160002060009054906101000a900460ff1661124b576040517f08c379a0000000000000000000000000000000000000000000000000000000008152600401611242906120be565b60405180910390fd5b806003016000815480929190611260906120de565b919050555060008160050160003373ffffffffffffffffffffffffffffffffffffffff1673ffffffffffffffffffffffffffffffffffffffff16815260200190815260200160002060006101000a81548160ff0219169083151502179055505050565b6040518060800160405280600081526020016060815260200160008152602001606081525090565b6000604051905090565b600080fd5b600080fd5b6000819050919050565b611312816112ff565b811461131d57600080fd5b50565b60008135905061132f81611309565b92915050565b60006020828403121561134b5761134a6112f5565b5b600061135984828501611320565b91505092915050565b61136b816112ff565b82525050565b600073ffffffffffffffffffffffffffffffffffffffff82169050919050565b600061139c82611371565b9050919050565b6113ac81611391565b82525050565b600081519050919050565b600082825260208201905092915050565b60005b838110156113ec5780820151818401526020810190506113d1565b60008484015250505050565b6000601f19601f8301169050919050565b6000611414826113b2565b61141e81856113bd565b935061142e8185602086016113ce565b611437816113f8565b840191505092915050565b60006080820190506114576000830187611362565b61146460208301866113a3565b81810360408301526114768185611409565b90506114856060830184611362565b95945050505050565b61149781611391565b81146114a257600080fd5b50565b6000813590506114b48161148e565b92915050565b6000602082840312156114d0576114cf6112f5565b5b60006114de848285016114a5565b91505092915050565b60008115159050919050565b6114fc816114e7565b82525050565b600060208201905061151760008301846114f3565b92915050565b600060208201905081810360008301526115378184611409565b905092915050565b60006020820190506115546000830184611362565b92915050565b600080fd5b600080fd5b7f4e487b7100000000000000000000000000000000000000000000000000000000600052604160045260246000fd5b61159c826113f8565b810181811067ffffffffffffffff821117156115bb576115ba611564565b5b80604052505050565b60006115ce6112eb565b90506115da8282611593565b919050565b600067ffffffffffffffff8211156115fa576115f9611564565b5b611603826113f8565b9050602081019050919050565b82818337600083830152505050565b600061163261162d846115df565b6115c4565b90508281526020810184848401111561164e5761164d61155f565b5b611659848285611610565b509392505050565b600082601f8301126116765761167561155a565b5b813561168684826020860161161f565b91505092915050565b600080604083850312156116a6576116a56112f5565b5b60006116b485828601611320565b925050602083013567ffffffffffffffff8111156116d5576116d46112fa565b5b6116e185828601611661565b9150509250929050565b60008060408385031215611702576117016112f5565b5b600083013567ffffffffffffffff8111156117205761171f6112fa565b5b61172c85828601611661565b925050602083013567ffffffffffffffff81111561174d5761174c6112fa565b5b61175985828601611661565b9150509250929050565b6000806040838503121561177a576117796112f5565b5b600061178885828601611320565b9250506020611799858286016114a5565b9150509250929050565b60006080820190506117b86000830187611362565b81810360208301526117ca8186611409565b90506117d96040830185611362565b81810360608301526117eb8184611409565b905095945050505050565b600060608201905061180b60008301866113a3565b818103602083015261181d8185611409565b905081810360408301526118318184611409565b9050949350505050565b600060208284031215611851576118506112f5565b5b600082013567ffffffffffffffff81111561186f5761186e6112fa565b5b61187b84828501611661565b91505092915050565b600081519050919050565b600082825260208201905092915050565b6000819050602082019050919050565b6118b9816112ff565b82525050565b600082825260208201905092915050565b60006118db826113b2565b6118e581856118bf565b93506118f58185602086016113ce565b6118fe816113f8565b840191505092915050565b600060808301600083015161192160008601826118b0565b506020830151848203602086015261193982826118d0565b915050604083015161194e60408601826118b0565b506060830151848203606086015261196682826118d0565b9150508091505092915050565b600061197f8383611909565b905092915050565b6000602082019050919050565b600061199f82611884565b6119a9818561188f565b9350836020820285016119bb856118a0565b8060005b858110156119f757848403895281516119d88582611973565b94506119e383611987565b925060208a019950506001810190506119bf565b50829750879550505050505092915050565b60006020820190508181036000830152611a238184611994565b905092915050565b7f4e487b7100000000000000000000000000000000000000000000000000000000600052602260045260246000fd5b60006002820490506001821680611a7257607f821691505b602082108103611a8557611a84611a2b565b5b50919050565b7f55736572206e6f7420666f756e64000000000000000000000000000000000000600082015250565b6000611ac1600e836113bd565b9150611acc82611a8b565b602082019050919050565b60006020820190508181036000830152611af081611ab4565b9050919050565b7f506f7374206e6f7420666f756e64000000000000000000000000000000000000600082015250565b6000611b2d600e836113bd565b9150611b3882611af7565b602082019050919050565b60006020820190508181036000830152611b5c81611b20565b9050919050565b7f4e487b7100000000000000000000000000000000000000000000000000000000600052601160045260246000fd5b6000611b9d826112ff565b91507fffffffffffffffffffffffffffffffffffffffffffffffffffffffffffffffff8203611bcf57611bce611b63565b5b600182019050919050565b600081549050611be981611a5a565b9050919050565b60008190508160005260206000209050919050565b60008190508160005260206000209050919050565b60006020601f8301049050919050565b600082821b905092915050565b600060088302611c677fffffffffffffffffffffffffffffffffffffffffffffffffffffffffffffffff82611c2a565b611c718683611c2a565b95508019841693508086168417925050509392505050565b6000819050919050565b6000611cae611ca9611ca4846112ff565b611c89565b6112ff565b9050919050565b6000819050919050565b611cc883611c93565b611cdc611cd482611cb5565b848454611c37565b825550505050565b600090565b611cf1611ce4565b611cfc818484611cbf565b505050565b5b81811015611d2057611d15600082611ce9565b600181019050611d02565b5050565b601f821115611d6557611d3681611bf0565b611d3f84611c1a565b81016020851015611d4e578190505b611d62611d5a85611c1a565b830182611d01565b50505b505050565b600082821c905092915050565b6000611d8860001984600802611d6a565b1980831691505092915050565b6000611da18383611d77565b9150826002028217905092915050565b818103611dbf575050611e97565b611dc882611bda565b67ffffffffffffffff811115611de157611de0611564565b5b611deb8254611a5a565b611df6828285611d24565b6000601f831160018114611e255760008415611e13578287015490505b611e1d8582611d95565b865550611e90565b601f198416611e3387611c05565b9650611e3e86611bf0565b60005b82811015611e6657848901548255600182019150600185019450602081019050611e41565b86831015611e835784890154611e7f601f891682611d77565b8355505b6001600288020188555050505b5050505050505b565b611ea2826113b2565b67ffffffffffffffff811115611ebb57611eba611564565b5b611ec58254611a5a565b611ed0828285611d24565b600060209050601f831160018114611f035760008415611ef1578287015190505b611efb8582611d95565b865550611f63565b601f198416611f1186611bf0565b60005b82811015611f3957848901518255600182019150602085019450602081019050611f14565b86831015611f565784890151611f52601f891682611d77565b8355505b6001600288020188555050505b505050505050565b7f416c7265616479206c696b656400000000000000000000000000000000000000600082015250565b6000611fa1600d836113bd565b9150611fac82611f6b565b602082019050919050565b60006020820190508181036000830152611fd081611f94565b9050919050565b7f5573657220657869737473000000000000000000000000000000000000000000600082015250565b600061200d600b836113bd565b915061201882611fd7565b602082019050919050565b6000602082019050818103600083015261203c81612000565b9050919050565b7f4e487b7100000000000000000000000000000000000000000000000000000000600052603260045260246000fd5b7f4e6f74206c696b65642079657400000000000000000000000000000000000000600082015250565b60006120a8600d836113bd565b91506120b382612072565b602082019050919050565b600060208201905081810360008301526120d78161209b565b9050919050565b60006120e9826112ff565b9150600082036120fc576120fb611b63565b5b60018203905091905056fea2646970667358221220c874c38e24681c12e01ec759d98b134b970771a4ede47f8efcc9270e339bdea764736f6c63430008140033",
  "linkReferences": {},
  "deployedLinkReferences": {}
}